{
    "contractName": "SimpleStorage",
    "abi": [
        {
            "inputs": [
                {
                    "internalType": "string",
                    "name": "_name",
                    "type": "string"
                },
                {
                    "internalType": "uint256",
                    "name": "_favNum",
                    "type": "uint256"
                }
            ],
            "name": "addPerson",
            "outputs": [],
            "stateMutability": "nonpayable",
            "type": "function"
        },
        {
            "inputs": [],
            "name": "favNum",
            "outputs": [
                {
                    "internalType": "uint256",
                    "name": "",
                    "type": "uint256"
                }
            ],
            "stateMutability": "view",
            "type": "function"
        },
        {
            "inputs": [
                {
                    "internalType": "uint256",
                    "name": "",
                    "type": "uint256"
                }
            ],
            "name": "people",
            "outputs": [
                {
                    "internalType": "uint256",
                    "name": "favNum",
                    "type": "uint256"
                },
                {
                    "internalType": "string",
                    "name": "name",
                    "type": "string"
                }
            ],
            "stateMutability": "view",
            "type": "function"
        },
        {
            "inputs": [
                {
                    "internalType": "uint256",
                    "name": "_favNum",
                    "type": "uint256"
                }
            ],
            "name": "store",
            "outputs": [],
            "stateMutability": "nonpayable",
            "type": "function"
        }
    ],
    "bytecode": "608060405234801561001057600080fd5b50610445806100206000396000f3fe608060405234801561001057600080fd5b506004361061004c5760003560e01c80633c8df652146100515780636057361d1461006d5780636f760f41146100825780639e7a13ad14610095575b600080fd5b61005a60005481565b6040519081526020015b60405180910390f35b61008061007b366004610294565b600055565b005b6100806100903660046102c3565b6100b6565b6100a86100a3366004610294565b610143565b604051610064929190610378565b604080518082019091528181526020808201848152600180548082018255600091909152835160029091027fb10e2d527612073b26eecdfd717e6a320cf44b4afac2b0732d9fcbe2b7fa0cf6810191825591518051919361013c937fb10e2d527612073b26eecdfd717e6a320cf44b4afac2b0732d9fcbe2b7fa0cf701929101906101fb565b5050505050565b6001818154811061015357600080fd5b60009182526020909120600290910201805460018201805491935090610178906103d5565b80601f01602080910402602001604051908101604052809291908181526020018280546101a4906103d5565b80156101f15780601f106101c6576101008083540402835291602001916101f1565b820191906000526020600020905b8154815290600101906020018083116101d457829003601f168201915b5050505050905082565b828054610207906103d5565b90600052602060002090601f016020900481019282610229576000855561026f565b82601f1061024257805160ff191683800117855561026f565b8280016001018555821561026f579182015b8281111561026f578251825591602001919060010190610254565b5061027b92915061027f565b5090565b5b8082111561027b5760008155600101610280565b6000602082840312156102a657600080fd5b5035919050565b634e487b7160e01b600052604160045260246000fd5b600080604083850312156102d657600080fd5b823567ffffffffffffffff808211156102ee57600080fd5b818501915085601f83011261030257600080fd5b813581811115610314576103146102ad565b604051601f8201601f19908116603f0116810190838211818310171561033c5761033c6102ad565b8160405282815288602084870101111561035557600080fd5b826020860160208301376000602093820184015298969091013596505050505050565b82815260006020604081840152835180604085015260005b818110156103ac57858101830151858201606001528201610390565b818111156103be576000606083870101525b50601f01601f191692909201606001949350505050565b600181811c908216806103e957607f821691505b60208210810361040957634e487b7160e01b600052602260045260246000fd5b5091905056fea26469706673582212204612d2bbd37f1f8a6fac8230f8b80860e6bea06894d8b0a70a33ae97d17133df64736f6c634300080e0033",
    "sourcePath": "/home/omegadev/workspace/blockchain/storage.sol",
    "compiler": {
        "name": "solc",
        "version": "0.8.14+commit.80d49f37"
    },
    "functionHashes": {
        "addPerson(string,uint256)": "6f760f41",
        "favNum()": "3c8df652",
        "people(uint256)": "9e7a13ad",
        "store(uint256)": "6057361d"
    },
    "gasEstimates": {
        "creation": {
            "codeDepositCost": "218600",
            "executionCost": "263",
            "totalCost": "218863"
        },
        "external": {
            "addPerson(string,uint256)": "infinite",
            "favNum()": "2262",
            "people(uint256)": "infinite",
            "store(uint256)": "22312"
        }
    }
}